{
    "contractName": "StakingSoil",
    "abi": [
        {
            "inputs": [],
            "stateMutability": "nonpayable",
            "type": "constructor"
        },
        {
            "anonymous": false,
            "inputs": [
                {
                    "indexed": false,
                    "internalType": "address",
                    "name": "previousAdmin",
                    "type": "address"
                },
                {
                    "indexed": false,
                    "internalType": "address",
                    "name": "newAdmin",
                    "type": "address"
                }
            ],
            "name": "AdminChanged",
            "type": "event"
        },
        {
            "anonymous": false,
            "inputs": [
                {
                    "indexed": true,
                    "internalType": "address",
                    "name": "beacon",
                    "type": "address"
                }
            ],
            "name": "BeaconUpgraded",
            "type": "event"
        },
        {
            "anonymous": false,
            "inputs": [
                {
                    "indexed": false,
                    "internalType": "uint8",
                    "name": "version",
                    "type": "uint8"
                }
            ],
            "name": "Initialized",
            "type": "event"
        },
        {
            "anonymous": false,
            "inputs": [
                {
                    "indexed": true,
                    "internalType": "bytes32",
                    "name": "role",
                    "type": "bytes32"
                },
                {
                    "indexed": true,
                    "internalType": "bytes32",
                    "name": "previousAdminRole",
                    "type": "bytes32"
                },
                {
                    "indexed": true,
                    "internalType": "bytes32",
                    "name": "newAdminRole",
                    "type": "bytes32"
                }
            ],
            "name": "RoleAdminChanged",
            "type": "event"
        },
        {
            "anonymous": false,
            "inputs": [
                {
                    "indexed": true,
                    "internalType": "bytes32",
                    "name": "role",
                    "type": "bytes32"
                },
                {
                    "indexed": true,
                    "internalType": "address",
                    "name": "account",
                    "type": "address"
                },
                {
                    "indexed": true,
                    "internalType": "address",
                    "name": "sender",
                    "type": "address"
                }
            ],
            "name": "RoleGranted",
            "type": "event"
        },
        {
            "anonymous": false,
            "inputs": [
                {
                    "indexed": true,
                    "internalType": "bytes32",
                    "name": "role",
                    "type": "bytes32"
                },
                {
                    "indexed": true,
                    "internalType": "address",
                    "name": "account",
                    "type": "address"
                },
                {
                    "indexed": true,
                    "internalType": "address",
                    "name": "sender",
                    "type": "address"
                }
            ],
            "name": "RoleRevoked",
            "type": "event"
        },
        {
            "anonymous": false,
            "inputs": [
                {
                    "indexed": false,
                    "internalType": "uint256",
                    "name": "id",
                    "type": "uint256"
                },
                {
                    "indexed": false,
                    "internalType": "address",
                    "name": "owner",
                    "type": "address"
                },
                {
                    "indexed": false,
                    "internalType": "uint256",
                    "name": "amounts",
                    "type": "uint256"
                }
            ],
            "name": "StakingCreated",
            "type": "event"
        },
        {
            "anonymous": false,
            "inputs": [
                {
                    "indexed": false,
                    "internalType": "uint256",
                    "name": "id",
                    "type": "uint256"
                },
                {
                    "indexed": false,
                    "internalType": "address",
                    "name": "owner",
                    "type": "address"
                },
                {
                    "indexed": false,
                    "internalType": "uint256",
                    "name": "amounts",
                    "type": "uint256"
                }
            ],
            "name": "StakingWithdrawn",
            "type": "event"
        },
        {
            "anonymous": false,
            "inputs": [
                {
                    "indexed": true,
                    "internalType": "address",
                    "name": "implementation",
                    "type": "address"
                }
            ],
            "name": "Upgraded",
            "type": "event"
        },
        {
            "inputs": [],
            "name": "CREATE_STAKING_ROLE",
            "outputs": [
                {
                    "internalType": "bytes32",
                    "name": "",
                    "type": "bytes32"
                }
            ],
            "stateMutability": "view",
            "type": "function"
        },
        {
            "inputs": [],
            "name": "DEFAULT_ADMIN_ROLE",
            "outputs": [
                {
                    "internalType": "bytes32",
                    "name": "",
                    "type": "bytes32"
                }
            ],
            "stateMutability": "view",
            "type": "function"
        },
        {
            "inputs": [],
            "name": "Ierc20",
            "outputs": [
                {
                    "internalType": "contract IERC20",
                    "name": "",
                    "type": "address"
                }
            ],
            "stateMutability": "view",
            "type": "function"
        },
        {
            "inputs": [
                {
                    "internalType": "address",
                    "name": "",
                    "type": "address"
                },
                {
                    "internalType": "uint256",
                    "name": "",
                    "type": "uint256"
                }
            ],
            "name": "OwnerStakingIds",
            "outputs": [
                {
                    "internalType": "uint256",
                    "name": "",
                    "type": "uint256"
                }
            ],
            "stateMutability": "view",
            "type": "function"
        },
        {
            "inputs": [
                {
                    "internalType": "uint256",
                    "name": "",
                    "type": "uint256"
                }
            ],
            "name": "StakingData",
            "outputs": [
                {
                    "internalType": "uint256",
                    "name": "id",
                    "type": "uint256"
                },
                {
                    "internalType": "address",
                    "name": "owner",
                    "type": "address"
                },
                {
                    "internalType": "uint256",
                    "name": "soilDeposited",
                    "type": "uint256"
                },
                {
                    "internalType": "uint256",
                    "name": "soilReward",
                    "type": "uint256"
                },
                {
                    "internalType": "uint256",
                    "name": "startTime",
                    "type": "uint256"
                },
                {
                    "internalType": "uint256",
                    "name": "endTime",
                    "type": "uint256"
                },
                {
                    "internalType": "bool",
                    "name": "isWithdrawn",
                    "type": "bool"
                }
            ],
            "stateMutability": "view",
            "type": "function"
        },
        {
            "inputs": [],
            "name": "UPGRADER_ROLE",
            "outputs": [
                {
                    "internalType": "bytes32",
                    "name": "",
                    "type": "bytes32"
                }
            ],
            "stateMutability": "view",
            "type": "function"
        },
        {
            "inputs": [],
            "name": "amountOfStakingIds",
            "outputs": [
                {
                    "internalType": "uint256",
                    "name": "",
                    "type": "uint256"
                }
            ],
            "stateMutability": "view",
            "type": "function"
        },
        {
            "inputs": [],
            "name": "amountOfStakingSoil",
            "outputs": [
                {
                    "internalType": "uint256",
                    "name": "",
                    "type": "uint256"
                }
            ],
            "stateMutability": "view",
            "type": "function"
        },
        {
            "inputs": [
                {
                    "internalType": "uint256",
                    "name": "_idStaking",
                    "type": "uint256"
                }
            ],
            "name": "claimReward",
            "outputs": [],
            "stateMutability": "nonpayable",
            "type": "function"
        },
        {
            "inputs": [
                {
                    "internalType": "address[]",
                    "name": "_owners",
                    "type": "address[]"
                },
                {
                    "internalType": "uint256[]",
                    "name": "_amounts",
                    "type": "uint256[]"
                }
            ],
            "name": "createStaking",
            "outputs": [],
            "stateMutability": "nonpayable",
            "type": "function"
        },
        {
            "inputs": [
                {
                    "components": [
                        {
                            "internalType": "address",
                            "name": "owner",
                            "type": "address"
                        },
                        {
                            "internalType": "uint256",
                            "name": "amount",
                            "type": "uint256"
                        }
                    ],
                    "internalType": "struct StakingSoil.Deposit[]",
                    "name": "_deposit",
                    "type": "tuple[]"
                }
            ],
            "name": "createStakingMany",
            "outputs": [],
            "stateMutability": "nonpayable",
            "type": "function"
        },
        {
            "inputs": [
                {
                    "internalType": "uint256",
                    "name": "_amount",
                    "type": "uint256"
                }
            ],
            "name": "emergencyWithdrawal",
            "outputs": [],
            "stateMutability": "nonpayable",
            "type": "function"
        },
        {
            "inputs": [],
            "name": "emergencyWithdrawalBNB",
            "outputs": [],
            "stateMutability": "nonpayable",
            "type": "function"
        },
        {
            "inputs": [
                {
                    "internalType": "bytes32",
                    "name": "role",
                    "type": "bytes32"
                }
            ],
            "name": "getRoleAdmin",
            "outputs": [
                {
                    "internalType": "bytes32",
                    "name": "",
                    "type": "bytes32"
                }
            ],
            "stateMutability": "view",
            "type": "function"
        },
        {
            "inputs": [
                {
                    "internalType": "address",
                    "name": "_owner",
                    "type": "address"
                }
            ],
            "name": "getStaking",
            "outputs": [
                {
                    "components": [
                        {
                            "internalType": "uint256",
                            "name": "id",
                            "type": "uint256"
                        },
                        {
                            "internalType": "address",
                            "name": "owner",
                            "type": "address"
                        },
                        {
                            "internalType": "uint256",
                            "name": "soilDeposited",
                            "type": "uint256"
                        },
                        {
                            "internalType": "uint256",
                            "name": "soilReward",
                            "type": "uint256"
                        },
                        {
                            "internalType": "uint256",
                            "name": "startTime",
                            "type": "uint256"
                        },
                        {
                            "internalType": "uint256",
                            "name": "endTime",
                            "type": "uint256"
                        },
                        {
                            "internalType": "bool",
                            "name": "isWithdrawn",
                            "type": "bool"
                        }
                    ],
                    "internalType": "struct IStakingSoil.Data[]",
                    "name": "",
                    "type": "tuple[]"
                }
            ],
            "stateMutability": "view",
            "type": "function"
        },
        {
            "inputs": [
                {
                    "internalType": "uint256",
                    "name": "_id",
                    "type": "uint256"
                }
            ],
            "name": "getStakingId",
            "outputs": [
                {
                    "components": [
                        {
                            "internalType": "uint256",
                            "name": "id",
                            "type": "uint256"
                        },
                        {
                            "internalType": "address",
                            "name": "owner",
                            "type": "address"
                        },
                        {
                            "internalType": "uint256",
                            "name": "soilDeposited",
                            "type": "uint256"
                        },
                        {
                            "internalType": "uint256",
                            "name": "soilReward",
                            "type": "uint256"
                        },
                        {
                            "internalType": "uint256",
                            "name": "startTime",
                            "type": "uint256"
                        },
                        {
                            "internalType": "uint256",
                            "name": "endTime",
                            "type": "uint256"
                        },
                        {
                            "internalType": "bool",
                            "name": "isWithdrawn",
                            "type": "bool"
                        }
                    ],
                    "internalType": "struct IStakingSoil.Data",
                    "name": "",
                    "type": "tuple"
                }
            ],
            "stateMutability": "view",
            "type": "function"
        },
        {
            "inputs": [
                {
                    "internalType": "bytes32",
                    "name": "role",
                    "type": "bytes32"
                },
                {
                    "internalType": "address",
                    "name": "account",
                    "type": "address"
                }
            ],
            "name": "grantRole",
            "outputs": [],
            "stateMutability": "nonpayable",
            "type": "function"
        },
        {
            "inputs": [
                {
                    "internalType": "bytes32",
                    "name": "role",
                    "type": "bytes32"
                },
                {
                    "internalType": "address",
                    "name": "account",
                    "type": "address"
                }
            ],
            "name": "hasRole",
            "outputs": [
                {
                    "internalType": "bool",
                    "name": "",
                    "type": "bool"
                }
            ],
            "stateMutability": "view",
            "type": "function"
        },
        {
            "inputs": [
                {
                    "internalType": "address",
                    "name": "_tokenSoil",
                    "type": "address"
                }
            ],
            "name": "initialize",
            "outputs": [],
            "stateMutability": "nonpayable",
            "type": "function"
        },
        {
            "inputs": [],
            "name": "proxiableUUID",
            "outputs": [
                {
                    "internalType": "bytes32",
                    "name": "",
                    "type": "bytes32"
                }
            ],
            "stateMutability": "view",
            "type": "function"
        },
        {
            "inputs": [
                {
                    "internalType": "bytes32",
                    "name": "role",
                    "type": "bytes32"
                },
                {
                    "internalType": "address",
                    "name": "account",
                    "type": "address"
                }
            ],
            "name": "renounceRole",
            "outputs": [],
            "stateMutability": "nonpayable",
            "type": "function"
        },
        {
            "inputs": [
                {
                    "internalType": "bytes32",
                    "name": "role",
                    "type": "bytes32"
                },
                {
                    "internalType": "address",
                    "name": "account",
                    "type": "address"
                }
            ],
            "name": "revokeRole",
            "outputs": [],
            "stateMutability": "nonpayable",
            "type": "function"
        },
        {
            "inputs": [
                {
                    "internalType": "bytes4",
                    "name": "interfaceId",
                    "type": "bytes4"
                }
            ],
            "name": "supportsInterface",
            "outputs": [
                {
                    "internalType": "bool",
                    "name": "",
                    "type": "bool"
                }
            ],
            "stateMutability": "view",
            "type": "function"
        },
        {
            "inputs": [],
            "name": "tokenSoil",
            "outputs": [
                {
                    "internalType": "contract ISoil",
                    "name": "",
                    "type": "address"
                }
            ],
            "stateMutability": "view",
            "type": "function"
        },
        {
            "inputs": [
                {
                    "internalType": "address",
                    "name": "newImplementation",
                    "type": "address"
                }
            ],
            "name": "upgradeTo",
            "outputs": [],
            "stateMutability": "nonpayable",
            "type": "function"
        },
        {
            "inputs": [
                {
                    "internalType": "address",
                    "name": "newImplementation",
                    "type": "address"
                },
                {
                    "internalType": "bytes",
                    "name": "data",
                    "type": "bytes"
                }
            ],
            "name": "upgradeToAndCall",
            "outputs": [],
            "stateMutability": "payable",
            "type": "function"
        }
    ],
    "bytecode": "60a06040523060805234801561001457600080fd5b5061001d610022565b6100e1565b600054610100900460ff161561008e5760405162461bcd60e51b815260206004820152602760248201527f496e697469616c697a61626c653a20636f6e747261637420697320696e697469604482015266616c697a696e6760c81b606482015260840160405180910390fd5b60005460ff908116146100df576000805460ff191660ff9081179091556040519081527f7f26b83ff96e1f2b6a682f133852f6798a09c465da95921460cefb38474024989060200160405180910390a15b565b60805161242c6200011960003960008181610879015281816108b901528181610958015281816109980152610a27015261242c6000f3fe6080604052600436106101805760003560e01c80638a360720116100d1578063ae169a501161008a578063d946c27011610064578063d946c270146104ec578063e0e5a44e14610519578063eaa110ee1461054d578063f72c0d8b1461056357600080fd5b8063ae169a501461048c578063c4d66de8146104ac578063d547741f146104cc57600080fd5b80638a360720146103be57806391d14854146103f657806396331d5e14610416578063a217fddf14610436578063a4357a4a1461044b578063a51e2aed1461046c57600080fd5b80633659cfe61161013e5780636bebd5d6116101185780636bebd5d6146102cf57806373124b48146102e4578063734cb96614610304578063813d84d31461031a57600080fd5b80633659cfe6146102875780634f1ef286146102a757806352d1902d146102ba57600080fd5b806239522c1461018557806301ffc9a7146101a757806311c88633146101dc578063248a9ca3146102095780632f2ff15d1461024757806336568abe14610267575b600080fd5b34801561019157600080fd5b506101a56101a0366004611cc1565b610597565b005b3480156101b357600080fd5b506101c76101c2366004611cda565b61061d565b60405190151581526020015b60405180910390f35b3480156101e857600080fd5b506101fc6101f7366004611d20565b610654565b6040516101d39190611d87565b34801561021557600080fd5b50610239610224366004611cc1565b60009081526065602052604090206001015490565b6040519081526020016101d3565b34801561025357600080fd5b506101a5610262366004611dd5565b6107c7565b34801561027357600080fd5b506101a5610282366004611dd5565b6107ec565b34801561029357600080fd5b506101a56102a2366004611d20565b61086f565b6101a56102b5366004611e71565b61094e565b3480156102c657600080fd5b50610239610a1a565b3480156102db57600080fd5b506101a5610acd565b3480156102f057600080fd5b506101a56102ff366004611fa6565b610ae2565b34801561031057600080fd5b5061023960fd5481565b34801561032657600080fd5b5061037f610335366004611cc1565b60fb60205260009081526040902080546001820154600283015460038401546004850154600586015460069096015494956001600160a01b03909416949293919290919060ff1687565b604080519788526001600160a01b039096166020880152948601939093526060850191909152608084015260a0830152151560c082015260e0016101d3565b3480156103ca57600080fd5b5060ff546103de906001600160a01b031681565b6040516001600160a01b0390911681526020016101d3565b34801561040257600080fd5b506101c7610411366004611dd5565b610d67565b34801561042257600080fd5b506101a5610431366004612066565b610d92565b34801561044257600080fd5b50610239600081565b34801561045757600080fd5b50610100546103de906001600160a01b031681565b34801561047857600080fd5b50610239610487366004612123565b610fa5565b34801561049857600080fd5b506101a56104a7366004611cc1565b610fd6565b3480156104b857600080fd5b506101a56104c7366004611d20565b6111d4565b3480156104d857600080fd5b506101a56104e7366004611dd5565b611371565b3480156104f857600080fd5b5061050c610507366004611cc1565b611396565b6040516101d3919061214d565b34801561052557600080fd5b506102397f44509109151603d86942053cb40ae1fe8451c825aa675f1fc49d14fb37a3513e81565b34801561055957600080fd5b5061023960fe5481565b34801561056f57600080fd5b506102397f189ab7a9244df0848122154315af71fe140f3db0fe014031783b0946b8c9d2e381565b60006105a28161140f565b6101005460405163a9059cbb60e01b8152336004820152602481018490526001600160a01b039091169063a9059cbb906044016020604051808303816000875af11580156105f4573d6000803e3d6000fd5b505050506040513d601f19601f82011682018060405250810190610618919061215b565b505050565b60006001600160e01b03198216637965db0b60e01b148061064e57506301ffc9a760e01b6001600160e01b03198316145b92915050565b6001600160a01b038116600090815260fc60205260408120546060919067ffffffffffffffff81111561068957610689611e01565b6040519080825280602002602001820160405280156106c257816020015b6106af611c79565b8152602001906001900390816106a75790505b50905060005b6001600160a01b038416600090815260fc60205260409020548110156107c0576001600160a01b038416600090815260fc60205260408120805460fb929190849081106107175761071761217d565b600091825260208083209091015483528281019390935260409182019020815160e0810183528154815260018201546001600160a01b0316938101939093526002810154918301919091526003810154606083015260048101546080830152600581015460a08301526006015460ff16151560c082015282518390839081106107a2576107a261217d565b602002602001018190525080806107b8906121a9565b9150506106c8565b5092915050565b6000828152606560205260409020600101546107e28161140f565b6106188383611419565b6001600160a01b03811633146108615760405162461bcd60e51b815260206004820152602f60248201527f416363657373436f6e74726f6c3a2063616e206f6e6c792072656e6f756e636560448201526e103937b632b9903337b91039b2b63360891b60648201526084015b60405180910390fd5b61086b828261149f565b5050565b6001600160a01b037f00000000000000000000000000000000000000000000000000000000000000001630036108b75760405162461bcd60e51b8152600401610858906121c2565b7f00000000000000000000000000000000000000000000000000000000000000006001600160a01b03166109006000805160206123b0833981519152546001600160a01b031690565b6001600160a01b0316146109265760405162461bcd60e51b81526004016108589061220e565b61092f81611506565b6040805160008082526020820190925261094b91839190611530565b50565b6001600160a01b037f00000000000000000000000000000000000000000000000000000000000000001630036109965760405162461bcd60e51b8152600401610858906121c2565b7f00000000000000000000000000000000000000000000000000000000000000006001600160a01b03166109df6000805160206123b0833981519152546001600160a01b031690565b6001600160a01b031614610a055760405162461bcd60e51b81526004016108589061220e565b610a0e82611506565b61086b82826001611530565b6000306001600160a01b037f00000000000000000000000000000000000000000000000000000000000000001614610aba5760405162461bcd60e51b815260206004820152603860248201527f555550535570677261646561626c653a206d757374206e6f742062652063616c60448201527f6c6564207468726f7567682064656c656761746563616c6c00000000000000006064820152608401610858565b506000805160206123b083398151915290565b6000610ad88161140f565b61094b334761169b565b8051825114610b4d5760405162461bcd60e51b815260206004820152603160248201527f5374616b696e67536f696c3a205f6f776e65727320616e64205f616d6f756e746044820152700e640d8cadccee8d040dad2e6dac2e8c6d607b1b6064820152608401610858565b60fd546000805b8451811015610cde576000848281518110610b7157610b7161217d565b602002602001015190506000868381518110610b8f57610b8f61217d565b602002602001015190508480600101955050828060010193505081840193506040518060e00160405280868152602001826001600160a01b03168152602001838152602001836002610be1919061225a565b8152602001428152602001426301e13380610bfc9190612271565b81526000602091820181905287815260fb825260408082208451815584840151600180830180546001600160a01b0319166001600160a01b0393841617905586840151600284015560608088015160038501556080880151600485015560a0880151600585015560c0909701516006909301805460ff191693151593909317909255861680845260fc8552828420805492830181558452928490200189905580518981529283019190915281018490527f4a74ad935340b5a35e15b9a1933aa9809754ea160fdbf9e221a769672e8a440f910160405180910390a15050610b54565b508160fd819055508060fe6000828254610cf89190612271565b909155505060ff546040516340c10f1960e01b8152306004820152602481018390526001600160a01b03909116906340c10f1990604401600060405180830381600087803b158015610d4957600080fd5b505af1158015610d5d573d6000803e3d6000fd5b5050505050505050565b60009182526065602090815260408084206001600160a01b0393909316845291905290205460ff1690565b60fd546000805b8351811015610f1d576000848281518110610db657610db661217d565b60200260200101519050838060010194505081806001019250508060200151830192506040518060e0016040528085815260200182600001516001600160a01b031681526020018260200151815260200182602001516002610e18919061225a565b8152602001428152602001426301e13380610e339190612271565b81526000602091820181905286815260fb825260408082208451815584840151600180830180546001600160a01b0319166001600160a01b0393841617905586840151600284015560608088015160038501556080880151600485015560a0880151600585015560c0909701516006909301805460ff19169315159390931790925586518116845260fc8552828420805492830181558452928490200188905584518584015182518a815291909316938101939093528201527f4a74ad935340b5a35e15b9a1933aa9809754ea160fdbf9e221a769672e8a440f910160405180910390a150610d99565b508160fd819055508060fe6000828254610f379190612271565b909155505060ff546040516340c10f1960e01b8152306004820152602481018390526001600160a01b03909116906340c10f1990604401600060405180830381600087803b158015610f8857600080fd5b505af1158015610f9c573d6000803e3d6000fd5b50505050505050565b60fc6020528160005260406000208181548110610fc157600080fd5b90600052602060002001600091509150505481565b600081815260fb60205260409020600681015460ff16156110395760405162461bcd60e51b815260206004820152601e60248201527f5374616b696e67536f696c3a20616c72656164792077697468647261776e00006044820152606401610858565b60018101546001600160a01b0316331461108e5760405162461bcd60e51b815260206004820152601660248201527529ba30b5b4b733a9b7b4b61d103737ba1037bbb732b960511b6044820152606401610858565b80600501544210156110e25760405162461bcd60e51b815260206004820152601960248201527f5374616b696e67536f696c3a206e6f7420656e642074696d65000000000000006044820152606401610858565b60068101805460ff1916600117905561010054600382015460405163a9059cbb60e01b815233600482015260248101919091526001600160a01b039091169063a9059cbb906044016020604051808303816000875af1158015611149573d6000803e3d6000fd5b505050506040513d601f19601f8201168201806040525081019061116d919061215b565b50806003015460fe60008282546111849190612284565b9091555050600381015460408051848152336020820152908101919091527f5b990b1cf1fc74ba86724cd3a920c82e663a8689478e474cab08bfbae6de89b7906060015b60405180910390a15050565b600054610100900460ff16158080156111f45750600054600160ff909116105b8061120e5750303b15801561120e575060005460ff166001145b6112715760405162461bcd60e51b815260206004820152602e60248201527f496e697469616c697a61626c653a20636f6e747261637420697320616c72656160448201526d191e481a5b9a5d1a585b1a5e995960921b6064820152608401610858565b6000805460ff191660011790558015611294576000805461ff0019166101001790555b61129c6117b4565b6112a46117b4565b6112af600033611419565b6112d97f189ab7a9244df0848122154315af71fe140f3db0fe014031783b0946b8c9d2e333611419565b6113037f44509109151603d86942053cb40ae1fe8451c825aa675f1fc49d14fb37a3513e33611419565b60ff80546001600160a01b0384166001600160a01b0319918216811790925561010080549091169091179055801561086b576000805461ff0019169055604051600181527f7f26b83ff96e1f2b6a682f133852f6798a09c465da95921460cefb3847402498906020016111c8565b60008281526065602052604090206001015461138c8161140f565b610618838361149f565b61139e611c79565b50600090815260fb6020908152604091829020825160e0810184528154815260018201546001600160a01b0316928101929092526002810154928201929092526003820154606082015260048201546080820152600582015460a082015260069091015460ff16151560c082015290565b61094b8133611821565b6114238282610d67565b61086b5760008281526065602090815260408083206001600160a01b03851684529091529020805460ff1916600117905561145b3390565b6001600160a01b0316816001600160a01b0316837f2f8788117e7eff1d82e926ec794901d17c78024a50270940304540a733656f0d60405160405180910390a45050565b6114a98282610d67565b1561086b5760008281526065602090815260408083206001600160a01b0385168085529252808320805460ff1916905551339285917ff6391f5c32d9c69d2a47ea670b442974b53935d1edc7fd64eb21e047a839171b9190a45050565b7f189ab7a9244df0848122154315af71fe140f3db0fe014031783b0946b8c9d2e361086b8161140f565b7f4910fdfa16fed3260ed0e7147f7cc6da11a60208b5b9406d12a635614ffd91435460ff1615611563576106188361187a565b826001600160a01b03166352d1902d6040518163ffffffff1660e01b8152600401602060405180830381865afa9250505080156115bd575060408051601f3d908101601f191682019092526115ba91810190612297565b60015b6116205760405162461bcd60e51b815260206004820152602e60248201527f45524331393637557067726164653a206e657720696d706c656d656e7461746960448201526d6f6e206973206e6f74205555505360901b6064820152608401610858565b6000805160206123b0833981519152811461168f5760405162461bcd60e51b815260206004820152602960248201527f45524331393637557067726164653a20756e737570706f727465642070726f786044820152681a58589b195555525160ba1b6064820152608401610858565b50610618838383611916565b804710156116eb5760405162461bcd60e51b815260206004820152601d60248201527f416464726573733a20696e73756666696369656e742062616c616e63650000006044820152606401610858565b6000826001600160a01b03168260405160006040518083038185875af1925050503d8060008114611738576040519150601f19603f3d011682016040523d82523d6000602084013e61173d565b606091505b50509050806106185760405162461bcd60e51b815260206004820152603a60248201527f416464726573733a20756e61626c6520746f2073656e642076616c75652c207260448201527f6563697069656e74206d617920686176652072657665727465640000000000006064820152608401610858565b600054610100900460ff1661181f5760405162461bcd60e51b815260206004820152602b60248201527f496e697469616c697a61626c653a20636f6e7472616374206973206e6f74206960448201526a6e697469616c697a696e6760a81b6064820152608401610858565b565b61182b8282610d67565b61086b5761183881611941565b611843836020611953565b6040516020016118549291906122d4565b60408051601f198184030181529082905262461bcd60e51b825261085891600401612349565b6001600160a01b0381163b6118e75760405162461bcd60e51b815260206004820152602d60248201527f455243313936373a206e657720696d706c656d656e746174696f6e206973206e60448201526c1bdd08184818dbdb9d1c9858dd609a1b6064820152608401610858565b6000805160206123b083398151915280546001600160a01b0319166001600160a01b0392909216919091179055565b61191f83611af6565b60008251118061192c5750805b156106185761193b8383611b36565b50505050565b606061064e6001600160a01b03831660145b6060600061196283600261225a565b61196d906002612271565b67ffffffffffffffff81111561198557611985611e01565b6040519080825280601f01601f1916602001820160405280156119af576020820181803683370190505b509050600360fc1b816000815181106119ca576119ca61217d565b60200101906001600160f81b031916908160001a905350600f60fb1b816001815181106119f9576119f961217d565b60200101906001600160f81b031916908160001a9053506000611a1d84600261225a565b611a28906001612271565b90505b6001811115611aa0576f181899199a1a9b1b9c1cb0b131b232b360811b85600f1660108110611a5c57611a5c61217d565b1a60f81b828281518110611a7257611a7261217d565b60200101906001600160f81b031916908160001a90535060049490941c93611a998161237c565b9050611a2b565b508315611aef5760405162461bcd60e51b815260206004820181905260248201527f537472696e67733a20686578206c656e67746820696e73756666696369656e746044820152606401610858565b9392505050565b611aff8161187a565b6040516001600160a01b038216907fbc7cd75a20ee27fd9adebab32041f755214dbc6bffa90cc0225b39da2e5c2d3b90600090a250565b6060611aef83836040518060600160405280602781526020016123d0602791396060600080856001600160a01b031685604051611b739190612393565b600060405180830381855af49150503d8060008114611bae576040519150601f19603f3d011682016040523d82523d6000602084013e611bb3565b606091505b5091509150611bc486838387611bce565b9695505050505050565b60608315611c3d578251600003611c36576001600160a01b0385163b611c365760405162461bcd60e51b815260206004820152601d60248201527f416464726573733a2063616c6c20746f206e6f6e2d636f6e74726163740000006044820152606401610858565b5081611c47565b611c478383611c4f565b949350505050565b815115611c5f5781518083602001fd5b8060405162461bcd60e51b81526004016108589190612349565b6040518060e001604052806000815260200160006001600160a01b03168152602001600081526020016000815260200160008152602001600081526020016000151581525090565b600060208284031215611cd357600080fd5b5035919050565b600060208284031215611cec57600080fd5b81356001600160e01b031981168114611aef57600080fd5b80356001600160a01b0381168114611d1b57600080fd5b919050565b600060208284031215611d3257600080fd5b611aef82611d04565b805182526020808201516001600160a01b03169083015260408082015190830152606080820151908301526080808201519083015260a0808201519083015260c0908101511515910152565b6020808252825182820181905260009190848201906040850190845b81811015611dc957611db6838551611d3b565b9284019260e09290920191600101611da3565b50909695505050505050565b60008060408385031215611de857600080fd5b82359150611df860208401611d04565b90509250929050565b634e487b7160e01b600052604160045260246000fd5b6040805190810167ffffffffffffffff81118282101715611e3a57611e3a611e01565b60405290565b604051601f8201601f1916810167ffffffffffffffff81118282101715611e6957611e69611e01565b604052919050565b60008060408385031215611e8457600080fd5b611e8d83611d04565b915060208084013567ffffffffffffffff80821115611eab57600080fd5b818601915086601f830112611ebf57600080fd5b813581811115611ed157611ed1611e01565b611ee3601f8201601f19168501611e40565b91508082528784828501011115611ef957600080fd5b80848401858401376000848284010152508093505050509250929050565b600067ffffffffffffffff821115611f3157611f31611e01565b5060051b60200190565b600082601f830112611f4c57600080fd5b81356020611f61611f5c83611f17565b611e40565b82815260059290921b84018101918181019086841115611f8057600080fd5b8286015b84811015611f9b5780358352918301918301611f84565b509695505050505050565b60008060408385031215611fb957600080fd5b823567ffffffffffffffff80821115611fd157600080fd5b818501915085601f830112611fe557600080fd5b81356020611ff5611f5c83611f17565b82815260059290921b8401810191818101908984111561201457600080fd5b948201945b838610156120395761202a86611d04565b82529482019490820190612019565b9650508601359250508082111561204f57600080fd5b5061205c85828601611f3b565b9150509250929050565b6000602080838503121561207957600080fd5b823567ffffffffffffffff81111561209057600080fd5b8301601f810185136120a157600080fd5b80356120af611f5c82611f17565b81815260069190911b820183019083810190878311156120ce57600080fd5b928401925b8284101561211857604084890312156120ec5760008081fd5b6120f4611e17565b6120fd85611d04565b815284860135868201528252604090930192908401906120d3565b979650505050505050565b6000806040838503121561213657600080fd5b61213f83611d04565b946020939093013593505050565b60e0810161064e8284611d3b565b60006020828403121561216d57600080fd5b81518015158114611aef57600080fd5b634e487b7160e01b600052603260045260246000fd5b634e487b7160e01b600052601160045260246000fd5b6000600182016121bb576121bb612193565b5060010190565b6020808252602c908201527f46756e6374696f6e206d7573742062652063616c6c6564207468726f7567682060408201526b19195b1959d85d1958d85b1b60a21b606082015260800190565b6020808252602c908201527f46756e6374696f6e206d7573742062652063616c6c6564207468726f7567682060408201526b6163746976652070726f787960a01b606082015260800190565b808202811582820484141761064e5761064e612193565b8082018082111561064e5761064e612193565b8181038181111561064e5761064e612193565b6000602082840312156122a957600080fd5b5051919050565b60005b838110156122cb5781810151838201526020016122b3565b50506000910152565b7f416363657373436f6e74726f6c3a206163636f756e742000000000000000000081526000835161230c8160178501602088016122b0565b7001034b99036b4b9b9b4b733903937b6329607d1b601791840191820152835161233d8160288401602088016122b0565b01602801949350505050565b60208152600082518060208401526123688160408501602087016122b0565b601f01601f19169190910160400192915050565b60008161238b5761238b612193565b506000190190565b600082516123a58184602087016122b0565b919091019291505056fe360894a13ba1a3210667c828492db98dca3e2076cc3735a920a3ca505d382bbc416464726573733a206c6f772d6c6576656c2064656c65676174652063616c6c206661696c6564a26469706673582212204c5da315ba067d095d7b9102bb31ebe8aea39f31442b106772761579238e182d64736f6c63430008130033",
    "sourcePath": "d:/escritorio/trabajo/plusvalica/contracts/contracts/StakingSoil.sol",
    "compiler": {
        "name": "solc",
        "version": "0.8.19+commit.7dd6d404"
    },
    "functionHashes": {
        "CREATE_STAKING_ROLE()": "e0e5a44e",
        "DEFAULT_ADMIN_ROLE()": "a217fddf",
        "Ierc20()": "a4357a4a",
        "OwnerStakingIds(address,uint256)": "a51e2aed",
        "StakingData(uint256)": "813d84d3",
        "UPGRADER_ROLE()": "f72c0d8b",
        "amountOfStakingIds()": "734cb966",
        "amountOfStakingSoil()": "eaa110ee",
        "claimReward(uint256)": "ae169a50",
        "createStaking(address[],uint256[])": "73124b48",
        "createStakingMany((address,uint256)[])": "96331d5e",
        "emergencyWithdrawal(uint256)": "0039522c",
        "emergencyWithdrawalBNB()": "6bebd5d6",
        "getRoleAdmin(bytes32)": "248a9ca3",
        "getStaking(address)": "11c88633",
        "getStakingId(uint256)": "d946c270",
        "grantRole(bytes32,address)": "2f2ff15d",
        "hasRole(bytes32,address)": "91d14854",
        "initialize(address)": "c4d66de8",
        "proxiableUUID()": "52d1902d",
        "renounceRole(bytes32,address)": "36568abe",
        "revokeRole(bytes32,address)": "d547741f",
        "supportsInterface(bytes4)": "01ffc9a7",
        "tokenSoil()": "8a360720",
        "upgradeTo(address)": "3659cfe6",
        "upgradeToAndCall(address,bytes)": "4f1ef286"
    },
    "gasEstimates": {
        "creation": {
            "codeDepositCost": "1852000",
            "executionCost": "infinite",
            "totalCost": "infinite"
        },
        "external": {
            "CREATE_STAKING_ROLE()": "261",
            "DEFAULT_ADMIN_ROLE()": "284",
            "Ierc20()": "2448",
            "OwnerStakingIds(address,uint256)": "4877",
            "StakingData(uint256)": "15410",
            "UPGRADER_ROLE()": "305",
            "amountOfStakingIds()": "2384",
            "amountOfStakingSoil()": "2383",
            "claimReward(uint256)": "infinite",
            "createStaking(address[],uint256[])": "infinite",
            "createStakingMany((address,uint256)[])": "infinite",
            "emergencyWithdrawal(uint256)": "infinite",
            "emergencyWithdrawalBNB()": "infinite",
            "getRoleAdmin(bytes32)": "2534",
            "getStaking(address)": "infinite",
            "getStakingId(uint256)": "15799",
            "grantRole(bytes32,address)": "infinite",
            "hasRole(bytes32,address)": "2699",
            "initialize(address)": "infinite",
            "proxiableUUID()": "infinite",
            "renounceRole(bytes32,address)": "29135",
            "revokeRole(bytes32,address)": "infinite",
            "supportsInterface(bytes4)": "472",
            "tokenSoil()": "2360",
            "upgradeTo(address)": "infinite",
            "upgradeToAndCall(address,bytes)": "infinite"
        },
        "internal": {
            "_authorizeUpgrade(address)": "infinite"
        }
    }
}